const data =  [
      {
        "blockNumber": "38576046",
        "timeStamp": "1642953819",
        "hash": "0x10959d6c2cb32dff049c6ffda643b7a8f24ed549b864daccdf1773f1981fa8f6",
        "nonce": "455",
        "blockHash": "0x0001bd560000037dd5e17884bec76e8214f29e3a0b5b59f464853a97b299fdb2",
        "transactionIndex": "22",
        "from": "0x5c146cd18fa53914580573c9b9604588529406ca",
        "to": "0xad337077480134028b7c68af290e891ce28076eb",
        "value": "25860437377049073920",
        "gas": "347908",
        "gasPrice": "101000000000",
        "isError": "0",
        "txreceipt_status": "0",
        "input": "0xd6febde8000000000000000000000000000000000000000000000000000000000000000c0000000000000000000000000000000000000000000055e7f4f5373dd4c00000",
        "contractAddress": "",
        "cumulativeGasUsed": "4072134",
        "gasUsed": "320440",
        "confirmations": "5374270",
        "methodId": "0xd6febde8",
        "functionName": "buy(uint256 id, uint256 amount)",
        "decodedInput": {
          "name": "buy",
          "params": [
            {
              "name": "_d",
              "value": "12",
              "type": "uint256"
            },
            {
              "name": "_amount",
              "value": "405680000000000000000000",
              "type": "uint256"
            }
          ]
        }
      },
      {
        "blockNumber": "38576300",
        "timeStamp": "1652954094",
        "hash": "0xcda043c02bd9a823bb46b2a14b01bd6f0142507ec6be2d893d9df29ed3e033d3",
        "nonce": "456",
        "blockHash": "0x0001bd5700000713f8bc7e51cc28609d856f1607a23bc843387e2ae4720775f8",
        "transactionIndex": "1",
        "from": "0x5c146cd18fa53914580573c9b9604588529406ca",
        "to": "0xad337077480134028b7c68af290e891ce28076eb",
        "value": "36192309368852310096",
        "gas": "347908",
        "gasPrice": "102000000000",
        "isError": "0",
        "txreceipt_status": "1",
        "input": "0xd6febde8000000000000000000000000000000000000000000000000000000000000000c00000000000000000000000000000000000000000000783a46ed8fe55ddc0000",
        "contractAddress": "",
        "cumulativeGasUsed": "407627",
        "gasUsed": "320440",
        "confirmations": "5374016",
        "methodId": "0xd6febde8",
        "functionName": "buy(uint256 id, uint256 amount)",
        "decodedInput": {
          "name": "buy",
          "params": [
            {
              "name": "_d",
              "value": "12",
              "type": "uint256"
            },
            {
              "name": "_amount",
              "value": "567759000000000000000000",
              "type": "uint256"
            }
          ]
        }
      },
      {
        "blockNumber": "38576361",
        "timeStamp": "1662954153",
        "hash": "0x997415d5e4e2b078d6a48aaf30168b4d22bbc735947b35d09deb8c16a61fc905",
        "nonce": "457",
        "blockHash": "0x0001bd5700000a4e4853009107f9bb65d4761809eec7aa8810ea595331abd347",
        "transactionIndex": "0",
        "from": "0x5c146cd18fa53914580573c9b9604588529406ca",
        "to": "0xad337077480134028b7c68af290e891ce28076eb",
        "value": "43619981827868672976",
        "gas": "347908",
        "gasPrice": "102605900301",
        "isError": "0",
        "txreceipt_status": "1",
        "input": "0xd6febde8000000000000000000000000000000000000000000000000000000000000000c0000000000000000000000000000000000000000000090e6d6c36a7a417c0000",
        "contractAddress": "",
        "cumulativeGasUsed": "320440",
        "gasUsed": "320440",
        "confirmations": "5373955",
        "methodId": "0xd6febde8",
        "functionName": "buy(uint256 id, uint256 amount)",
        "decodedInput": {
          "name": "buy",
          "params": [
            {
              "name": "_d",
              "value": "12",
              "type": "uint256"
            },
            {
              "name": "_amount",
              "value": "684279000000000000000000",
              "type": "uint256"
            }
          ]
        }
      },
      {
        "blockNumber": "38576419",
        "timeStamp": "1672954215",
        "hash": "0xa68daad8398ddf75fc67fec953191b80557b438fd4b8217075ba0e4a17eda46e",
        "nonce": "458",
        "blockHash": "0x0001bd5700000d90ce8c3ec86ef6157d374840b858395d3d3e38d567b94c768d",
        "transactionIndex": "1",
        "from": "0x5c146cd18fa53914580573c9b9604588529406ca",
        "to": "0xad337077480134028b7c68af290e891ce28076eb",
        "value": "49291390950819469312",
        "gas": "347896",
        "gasPrice": "101000000000",
        "isError": "0",
        "txreceipt_status": "0",
        "input": "0xd6febde8000000000000000000000000000000000000000000000000000000000000000c00000000000000000000000000000000000000000000a3bddbaab48362000000",
        "contractAddress": "",
        "cumulativeGasUsed": "497256",
        "gasUsed": "320428",
        "confirmations": "5373897",
        "methodId": "0xd6febde8",
        "functionName": "buy(uint256 id, uint256 amount)",
        "decodedInput": {
          "name": "buy",
          "params": [
            {
              "name": "_d",
              "value": "12",
              "type": "uint256"
            },
            {
              "name": "_amount",
              "value": "773248000000000000000000",
              "type": "uint256"
            }
          ]
        }
      },
      {
        "blockNumber": "38576449",
        "timeStamp": "1682954258",
        "hash": "0xb33648c863e9e6d7de02fe89c0f37a4ee614f27e5365341daa1a3654207a5d9b",
        "nonce": "459",
        "blockHash": "0x0001bd5800000069acf9fb67fdb05519b1f33e67e42b6eede65a895bc859e1a0",
        "transactionIndex": "8",
        "from": "0x5c146cd18fa53914580573c9b9604588529406ca",
        "to": "0xad337077480134028b7c68af290e891ce28076eb",
        "value": "69407876368852173424",
        "gas": "347908",
        "gasPrice": "100100000000",
        "isError": "0",
        "txreceipt_status": "1",
        "input": "0xd6febde8000000000000000000000000000000000000000000000000000000000000000c00000000000000000000000000000000000000000000e6911acc7719fbb40000",
        "contractAddress": "",
        "cumulativeGasUsed": "2025313",
        "gasUsed": "320440",
        "confirmations": "5373867",
        "methodId": "0xd6febde8",
        "functionName": "buy(uint256 id, uint256 amount)",
        "decodedInput": {
          "name": "buy",
          "params": [
            {
              "name": "_d",
              "value": "12",
              "type": "uint256"
            },
            {
              "name": "_amount",
              "value": "1088821000000000000000000",
              "type": "uint256"
            }
          ]
        }
      },
      {
        "blockNumber": "38576705",
        "timeStamp": "1692954622",
        "hash": "0x13163f6716e13e5af18bf4858fc04b23414811ca88bb226074a07d1fb9dba24a",
        "nonce": "460",
        "blockHash": "0x0001bd5a0000050584f34371de4da5938513ab51bc686732e07af16b8a56511a",
        "transactionIndex": "3",
        "from": "0x5c146cd18fa53914580573c9b9604588529406ca",
        "to": "0xad337077480134028b7c68af290e891ce28076eb",
        "value": "86098465795081612944",
        "gas": "347920",
        "gasPrice": "101000000000",
        "isError": "0",
        "txreceipt_status": "1",
        "input": "0xd6febde8000000000000000000000000000000000000000000000000000000000000000c000000000000000000000000000000000000000000011e02effafc4eab0c0000",
        "contractAddress": "",
        "cumulativeGasUsed": "647447",
        "gasUsed": "320452",
        "confirmations": "5373611",
        "methodId": "0xd6febde8",
        "functionName": "buy(uint256 id, uint256 amount)",
        "decodedInput": {
          "name": "buy",
          "params": [
            {
              "name": "_d",
              "value": "12",
              "type": "uint256"
            },
            {
              "name": "_amount",
              "value": "1350651000000000000000000",
              "type": "uint256"
            }
          ]
        }
      },
      {
        "blockNumber": "38577070",
        "timeStamp": "1652955068",
        "hash": "0xec0a42666be2a951cc709d62f8254bb3ef522f6c7559d07fc7b768a904b986f2",
        "nonce": "461",
        "blockHash": "0x0001bd5d000004893f8de89273eefd290d64a83c28fc9ee0d0405a5ceaa5d51c",
        "transactionIndex": "2",
        "from": "0x5c146cd18fa53914580573c9b9604588529406ca",
        "to": "0xad337077480134028b7c68af290e891ce28076eb",
        "value": "90354333426229136416",
        "gas": "347920",
        "gasPrice": "126000000000",
        "isError": "0",
        "txreceipt_status": "1",
        "input": "0xd6febde8000000000000000000000000000000000000000000000000000000000000000c000000000000000000000000000000000000000000012c262aba52c5f7580000",
        "contractAddress": "",
        "cumulativeGasUsed": "566667",
        "gasUsed": "320452",
        "confirmations": "5373246",
        "methodId": "0xd6febde8",
        "functionName": "buy(uint256 id, uint256 amount)",
        "decodedInput": {
          "name": "buy",
          "params": [
            {
              "name": "_d",
              "value": "12",
              "type": "uint256"
            },
            {
              "name": "_amount",
              "value": "1417414000000000000000000",
              "type": "uint256"
            }
          ]
        }
      },
      {
        "blockNumber": "38577132",
        "timeStamp": "1652955144",
        "hash": "0x74328d6ddf57522141345b81fd78232c61698910339b81014b10f91216888e99",
        "nonce": "462",
        "blockHash": "0x0001bd5d0000089ee89bfc3da5765399343184a1af49af8c781c2ebb85a70374",
        "transactionIndex": "49",
        "from": "0x5c146cd18fa53914580573c9b9604588529406ca",
        "to": "0xad337077480134028b7c68af290e891ce28076eb",
        "value": "171850345122950112560",
        "gas": "347920",
        "gasPrice": "125000000000",
        "isError": "0",
        "txreceipt_status": "1",
        "input": "0xd6febde8000000000000000000000000000000000000000000000000000000000000000c000000000000000000000000000000000000000000023adf226db3133f440000",
        "contractAddress": "",
        "cumulativeGasUsed": "8645816",
        "gasUsed": "320452",
        "confirmations": "5373184",
        "methodId": "0xd6febde8",
        "functionName": "buy(uint256 id, uint256 amount)",
        "decodedInput": {
          "name": "buy",
          "params": [
            {
              "name": "_d",
              "value": "12",
              "type": "uint256"
            },
            {
              "name": "_amount",
              "value": "2695865000000000000000000",
              "type": "uint256"
            }
          ]
        }
      },
      {
        "blockNumber": "38577495",
        "timeStamp": "1652955537",
        "hash": "0xde73d588b6cbe523323ac5c2447e41e22a77606f787476272859ab7411aa70ed",
        "nonce": "463",
        "blockHash": "0x0001bd5e00000999c1adce36741e6f80e0155646ab3417dbaa4056135c37b746",
        "transactionIndex": "3",
        "from": "0x5c146cd18fa53914580573c9b9604588529406ca",
        "to": "0xad337077480134028b7c68af290e891ce28076eb",
        "value": "260508336360654665792",
        "gas": "347920",
        "gasPrice": "127886945352",
        "isError": "0",
        "txreceipt_status": "1",
        "input": "0xd6febde8000000000000000000000000000000000000000000000000000000000000000c000000000000000000000000000000000000000000036162b75850f816b00000",
        "contractAddress": "",
        "cumulativeGasUsed": "763591",
        "gasUsed": "320452",
        "confirmations": "5372821",
        "methodId": "0xd6febde8",
        "functionName": "buy(uint256 id, uint256 amount)",
        "decodedInput": {
          "name": "buy",
          "params": [
            {
              "name": "_d",
              "value": "12",
              "type": "uint256"
            },
            {
              "name": "_amount",
              "value": "4086668000000000000000000",
              "type": "uint256"
            }
          ]
        }
      },
      {
        "blockNumber": "38579474",
        "timeStamp": "1652957799",
        "hash": "0x3843423f4dd04bea828da71462260aa44b12258daeb06ff6286c82fee1259e36",
        "nonce": "464",
        "blockHash": "0x0001bd68000004546118deb955e901aedffe493ee74b1836341c4a6e5ad47e3d",
        "transactionIndex": "1",
        "from": "0x5c146cd18fa53914580573c9b9604588529406ca",
        "to": "0xad337077480134028b7c68af290e891ce28076eb",
        "value": "359898715090162453552",
        "gas": "347920",
        "gasPrice": "141000000000",
        "isError": "0",
        "txreceipt_status": "1",
        "input": "0xd6febde8000000000000000000000000000000000000000000000000000000000000000c00000000000000000000000000000000000000000004ab8d385f52c1ba840000",
        "contractAddress": "",
        "cumulativeGasUsed": "601096",
        "gasUsed": "320452",
        "confirmations": "5370842",
        "methodId": "0xd6febde8",
        "functionName": "buy(uint256 id, uint256 amount)",
        "decodedInput": {
          "name": "buy",
          "params": [
            {
              "name": "_d",
              "value": "12",
              "type": "uint256"
            },
            {
              "name": "_amount",
              "value": "5645833000000000000000000",
              "type": "uint256"
            }
          ]
        }
      },
      {
        "blockNumber": "38579538",
        "timeStamp": "1652957859",
        "hash": "0x50cbcfcb4448a7c2f6186f2a3ec7e4fb1d532f612c7cb25dd30c5013285f2be3",
        "nonce": "465",
        "blockHash": "0x0001bd680000078d31dce528ccc4901ee9e0b613edd041f5a02fcace5168c362",
        "transactionIndex": "0",
        "from": "0x5c146cd18fa53914580573c9b9604588529406ca",
        "to": "0xad337077480134028b7c68af290e891ce28076eb",
        "value": "415163097024588455664",
        "gas": "347920",
        "gasPrice": "132000000000",
        "isError": "0",
        "txreceipt_status": "1",
        "input": "0xd6febde8000000000000000000000000000000000000000000000000000000000000000c00000000000000000000000000000000000000000005632290c1bb64b2140000",
        "contractAddress": "",
        "cumulativeGasUsed": "320452",
        "gasUsed": "320452",
        "confirmations": "5370778",
        "methodId": "0xd6febde8",
        "functionName": "buy(uint256 id, uint256 amount)",
        "decodedInput": {
          "name": "buy",
          "params": [
            {
              "name": "_d",
              "value": "12",
              "type": "uint256"
            },
            {
              "name": "_amount",
              "value": "6512781000000000000000000",
              "type": "uint256"
            }
          ]
        }
      },
      {
        "blockNumber": "38579577",
        "timeStamp": "1652957905",
        "hash": "0xde691b71e048af6eaadd6c85e9f26b7b038567b9980f24835bf1df64b3ee3dea",
        "nonce": "466",
        "blockHash": "0x0001bd690000015a7c77842266a6201b032bc8e5386a37442d5ca1ed2e396d2e",
        "transactionIndex": "1",
        "from": "0x5c146cd18fa53914580573c9b9604588529406ca",
        "to": "0xad337077480134028b7c68af290e891ce28076eb",
        "value": "580224631114751710912",
        "gas": "347920",
        "gasPrice": "118946833687",
        "isError": "0",
        "txreceipt_status": "1",
        "input": "0xd6febde8000000000000000000000000000000000000000000000000000000000000000c0000000000000000000000000000000000000000000787746e8a110e22900000",
        "contractAddress": "",
        "cumulativeGasUsed": "467393",
        "gasUsed": "320452",
        "confirmations": "5370739",
        "methodId": "0xd6febde8",
        "functionName": "buy(uint256 id, uint256 amount)",
        "decodedInput": {
          "name": "buy",
          "params": [
            {
              "name": "_d",
              "value": "12",
              "type": "uint256"
            },
            {
              "name": "_amount",
              "value": "9102148000000000000000000",
              "type": "uint256"
            }
          ]
        }
      },
      {
        "blockNumber": "38581589",
        "timeStamp": "1652960533",
        "hash": "0x1197bfc7fc7d1b807029c464a93dcf0d8602b9c7147e1fa6ae6e802d1fc846c1",
        "nonce": "467",
        "blockHash": "0x0001bd78000002272e31467c115302776ebdeb33117b2d4d9bbbfc8c26c1e361",
        "transactionIndex": "26",
        "from": "0x5c146cd18fa53914580573c9b9604588529406ca",
        "to": "0xad337077480134028b7c68af290e891ce28076eb",
        "value": "3804027054696705659056",
        "gas": "347920",
        "gasPrice": "201000000000",
        "isError": "0",
        "txreceipt_status": "1",
        "input": "0xd6febde8000000000000000000000000000000000000000000000000000000000000000c000000000000000000000000000000000000000000315ca40be2a7865ee40000",
        "contractAddress": "",
        "cumulativeGasUsed": "3832423",
        "gasUsed": "320452",
        "confirmations": "5368727",
        "methodId": "0xd6febde8",
        "functionName": "buy(uint256 id, uint256 amount)",
        "decodedInput": {
          "name": "buy",
          "params": [
            {
              "name": "_d",
              "value": "12",
              "type": "uint256"
            },
            {
              "name": "_amount",
              "value": "59674849000000000000000000",
              "type": "uint256"
            }
          ]
        }
      },
      {
        "blockNumber": "38582769",
        "timeStamp": "1652961888",
        "hash": "0x2a1938a08d8e4837536f9fd07aa986b6fac635ebffaeda9dab6e0807f2133852",
        "nonce": "468",
        "blockHash": "0x0001bd7e00000516be1edaf84751a401756d49dd61c2aaaab402b6625365d783",
        "transactionIndex": "1",
        "from": "0x5c146cd18fa53914580573c9b9604588529406ca",
        "to": "0xad337077480134028b7c68af290e891ce28076eb",
        "value": "1538554380540977275872",
        "gas": "347920",
        "gasPrice": "221000000000",
        "isError": "0",
        "txreceipt_status": "1",
        "input": "0xd6febde8000000000000000000000000000000000000000000000000000000000000000c00000000000000000000000000000000000000000013f6f0fa8c8b880ca80000",
        "contractAddress": "",
        "cumulativeGasUsed": "436414",
        "gasUsed": "320452",
        "confirmations": "5367547",
        "methodId": "0xd6febde8",
        "functionName": "buy(uint256 id, uint256 amount)",
        "decodedInput": {
          "name": "buy",
          "params": [
            {
              "name": "_d",
              "value": "12",
              "type": "uint256"
            },
            {
              "name": "_amount",
              "value": "24135738000000000000000000",
              "type": "uint256"
            }
          ]
        }
      },
      {
        "blockNumber": "39806892",
        "timeStamp": "1654393983",
        "hash": "0xc3e117eddfe86151fe7202db5e7d6635184af388c14ec5a662e21277a7b585f7",
        "nonce": "489",
        "blockHash": "0x0001d43c000008fb0e794c46935bfb1001dc1dd69b773625df43c9c9af925fc2",
        "transactionIndex": "0",
        "from": "0x5c146cd18fa53914580573c9b9604588529406ca",
        "to": "0xad337077480134028b7c68af290e891ce28076eb",
        "value": "749828571428574900000",
        "gas": "347920",
        "gasPrice": "9999639026",
        "isError": "0",
        "txreceipt_status": "1",
        "input": "0xd6febde800000000000000000000000000000000000000000000000000000000000000120000000000000000000000000000000000000000001419b9a3bada27fb800000",
        "contractAddress": "",
        "cumulativeGasUsed": "320452",
        "gasUsed": "320452",
        "confirmations": "4143424",
        "methodId": "0xd6febde8",
        "functionName": "buy(uint256 id, uint256 amount)",
        "decodedInput": {
          "name": "buy",
          "params": [
            {
              "name": "_d",
              "value": "18",
              "type": "uint256"
            },
            {
              "name": "_amount",
              "value": "24300000000000000000000000",
              "type": "uint256"
            }
          ]
        }
      },
      {
        "blockNumber": "39807092",
        "timeStamp": "1654394186",
        "hash": "0x0a2bcd07afdb3144c6eb6651aa67098192ca05a267ca7cd4b9fda9486e2836da",
        "nonce": "490",
        "blockHash": "0x0001d43d0000000afa13a59abf4c08dec220e31d02f3917cef6516d5da7d30f4",
        "transactionIndex": "31",
        "from": "0x5c146cd18fa53914580573c9b9604588529406ca",
        "to": "0xad337077480134028b7c68af290e891ce28076eb",
        "value": "138857142857143500000",
        "gas": "347920",
        "gasPrice": "7000000000",
        "isError": "0",
        "txreceipt_status": "1",
        "input": "0xd6febde8000000000000000000000000000000000000000000000000000000000000001200000000000000000000000000000000000000000003b8e97d229a2d54800000",
        "contractAddress": "",
        "cumulativeGasUsed": "3295573",
        "gasUsed": "320452",
        "confirmations": "4143224",
        "methodId": "0xd6febde8",
        "functionName": "buy(uint256 id, uint256 amount)",
        "decodedInput": {
          "name": "buy",
          "params": [
            {
              "name": "_d",
              "value": "18",
              "type": "uint256"
            },
            {
              "name": "_amount",
              "value": "4500000000000000000000000",
              "type": "uint256"
            }
          ]
        }
      },
      {
        "blockNumber": "39807137",
        "timeStamp": "1654394247",
        "hash": "0xc83523d4645b4cb9c15b6f98f466c0646a36c0f4eb5acfe20c91c0feab181c1f",
        "nonce": "491",
        "blockHash": "0x0001d43d0000028c332c15af0e53c686a813dc17a873da7df94f9fcca5347460",
        "transactionIndex": "0",
        "from": "0x5c146cd18fa53914580573c9b9604588529406ca",
        "to": "0xad337077480134028b7c68af290e891ce28076eb",
        "value": "74057142857143200000",
        "gas": "347908",
        "gasPrice": "7000000000",
        "isError": "0",
        "txreceipt_status": "1",
        "input": "0xd6febde8000000000000000000000000000000000000000000000000000000000000001200000000000000000000000000000000000000000001fc3842bd1f071c000000",
        "contractAddress": "",
        "cumulativeGasUsed": "320440",
        "gasUsed": "320440",
        "confirmations": "4143179",
        "methodId": "0xd6febde8",
        "functionName": "buy(uint256 id, uint256 amount)",
        "decodedInput": {
          "name": "buy",
          "params": [
            {
              "name": "_d",
              "value": "18",
              "type": "uint256"
            },
            {
              "name": "_amount",
              "value": "2400000000000000000000000",
              "type": "uint256"
            }
          ]
        }
      },
      {
        "blockNumber": "39807170",
        "timeStamp": "1654394282",
        "hash": "0x32fab681a33147a6bef4dbffb886c107dfbdad7750d23d3528301462cf439bc5",
        "nonce": "492",
        "blockHash": "0x0001d43d000004572b5231db3f26bcbcf10864f1f9ae23e0ddd5db004dbcdf61",
        "transactionIndex": "2",
        "from": "0x5c146cd18fa53914580573c9b9604588529406ca",
        "to": "0xad337077480134028b7c68af290e891ce28076eb",
        "value": "33942857142857300000",
        "gas": "347908",
        "gasPrice": "7000000000",
        "isError": "0",
        "txreceipt_status": "1",
        "input": "0xd6febde8000000000000000000000000000000000000000000000000000000000000001200000000000000000000000000000000000000000000e8ef1e96ae3897800000",
        "contractAddress": "",
        "cumulativeGasUsed": "513371",
        "gasUsed": "320440",
        "confirmations": "4143146",
        "methodId": "0xd6febde8",
        "functionName": "buy(uint256 id, uint256 amount)",
        "decodedInput": {
          "name": "buy",
          "params": [
            {
              "name": "_d",
              "value": "18",
              "type": "uint256"
            },
            {
              "name": "_amount",
              "value": "1100000000000000000000000",
              "type": "uint256"
            }
          ]
        }
      },
      {
        "blockNumber": "39807217",
        "timeStamp": "1654394329",
        "hash": "0x8c2d90e02f35722b98bd3b941ccad912576e6853bba5b7619f7279ffdd41d330",
        "nonce": "493",
        "blockHash": "0x0001d43d000006c3e9651b9ca2376ecf6b2a33eba72326ad6968308bd39ef399",
        "transactionIndex": "6",
        "from": "0x5c146cd18fa53914580573c9b9604588529406ca",
        "to": "0xad337077480134028b7c68af290e891ce28076eb",
        "value": "30857142857143000000",
        "gas": "347896",
        "gasPrice": "7000000000",
        "isError": "0",
        "txreceipt_status": "1",
        "input": "0xd6febde8000000000000000000000000000000000000000000000000000000000000001200000000000000000000000000000000000000000000d3c21bcecceda1000000",
        "contractAddress": "",
        "cumulativeGasUsed": "3640337",
        "gasUsed": "320428",
        "confirmations": "4143099",
        "methodId": "0xd6febde8",
        "functionName": "buy(uint256 id, uint256 amount)",
        "decodedInput": {
          "name": "buy",
          "params": [
            {
              "name": "_d",
              "value": "18",
              "type": "uint256"
            },
            {
              "name": "_amount",
              "value": "1000000000000000000000000",
              "type": "uint256"
            }
          ]
        }
      },
      {
        "blockNumber": "40059086",
        "timeStamp": "1654685976",
        "hash": "0x1f8fd8498cf15c47a34314122c60a3e142a9f1f17870e4cf38ff931077b2d44c",
        "nonce": "496",
        "blockHash": "0x0001d8f1000004e0b0a7e9843f9d3996f94286a9f96aaf7e04f98e50d80a3996",
        "transactionIndex": "44",
        "from": "0x5c146cd18fa53914580573c9b9604588529406ca",
        "to": "0xad337077480134028b7c68af290e891ce28076eb",
        "value": "6171428571428600000",
        "gas": "347896",
        "gasPrice": "12756334579",
        "isError": "0",
        "txreceipt_status": "1",
        "input": "0xd6febde80000000000000000000000000000000000000000000000000000000000000012000000000000000000000000000000000000000000002a5a058fc295ed000000",
        "contractAddress": "",
        "cumulativeGasUsed": "4726343",
        "gasUsed": "320428",
        "confirmations": "3891230",
        "methodId": "0xd6febde8",
        "functionName": "buy(uint256 id, uint256 amount)",
        "decodedInput": {
          "name": "buy",
          "params": [
            {
              "name": "_d",
              "value": "18",
              "type": "uint256"
            },
            {
              "name": "_amount",
              "value": "200000000000000000000000",
              "type": "uint256"
            }
          ]
        }
      },
      {
        "blockNumber": "41111831",
        "timeStamp": "1655939370",
        "hash": "0xf76c64442e7d6227be941833278e73e190d3825690ac05384e137e185a682f88",
        "nonce": "506",
        "blockHash": "0x0001ec77000000d467b8a47f18ef3b91abb71f0923d3cf4043c233e92801bf18",
        "transactionIndex": "0",
        "from": "0x5c146cd18fa53914580573c9b9604588529406ca",
        "to": "0xad337077480134028b7c68af290e891ce28076eb",
        "value": "136551724137931020800",
        "gas": "347908",
        "gasPrice": "4110425139",
        "isError": "0",
        "txreceipt_status": "1",
        "input": "0xd6febde80000000000000000000000000000000000000000000000000000000000000014000000000000000000000000000000000000000000001c4fe43adb0a5e900000",
        "contractAddress": "",
        "cumulativeGasUsed": "320440",
        "gasUsed": "320440",
        "confirmations": "2838485",
        "methodId": "0xd6febde8",
        "functionName": "buy(uint256 id, uint256 amount)",
        "decodedInput": {
          "name": "buy",
          "params": [
            {
              "name": "_d",
              "value": "20",
              "type": "uint256"
            },
            {
              "name": "_amount",
              "value": "133700000000000000000000",
              "type": "uint256"
            }
          ]
        }
      },
      {
        "blockNumber": "41111861",
        "timeStamp": "1655939403",
        "hash": "0x2277e15260563a523679490aa1f775e7332d47e4dd122124c215911c2414fb77",
        "nonce": "507",
        "blockHash": "0x0001ec770000029db2cf3d1f6a65f969738e3783891426f660de41ecf9fd5e9c",
        "transactionIndex": "0",
        "from": "0x5c146cd18fa53914580573c9b9604588529406ca",
        "to": "0xad337077480134028b7c68af290e891ce28076eb",
        "value": "136551724137931020800",
        "gas": "347908",
        "gasPrice": "2929463457",
        "isError": "0",
        "txreceipt_status": "1",
        "input": "0xd6febde80000000000000000000000000000000000000000000000000000000000000014000000000000000000000000000000000000000000001c4fe43adb0a5e900000",
        "contractAddress": "",
        "cumulativeGasUsed": "320440",
        "gasUsed": "320440",
        "confirmations": "2838455",
        "methodId": "0xd6febde8",
        "functionName": "buy(uint256 id, uint256 amount)",
        "decodedInput": {
          "name": "buy",
          "params": [
            {
              "name": "_d",
              "value": "20",
              "type": "uint256"
            },
            {
              "name": "_amount",
              "value": "133700000000000000000000",
              "type": "uint256"
            }
          ]
        }
      },
      {
        "blockNumber": "41111863",
        "timeStamp": "1655939406",
        "hash": "0x7450646803f04723a342cc842fb546073ae5323982baca919abfa2ba2a0e0b3e",
        "nonce": "508",
        "blockHash": "0x0001ec77000002c6d6e6186c8b5f2d8c1a7fbc5c278e57745c0760506bc6d250",
        "transactionIndex": "3",
        "from": "0x5c146cd18fa53914580573c9b9604588529406ca",
        "to": "0xad337077480134028b7c68af290e891ce28076eb",
        "value": "136551724137931020800",
        "gas": "347908",
        "gasPrice": "2929463457",
        "isError": "0",
        "txreceipt_status": "1",
        "input": "0xd6febde80000000000000000000000000000000000000000000000000000000000000014000000000000000000000000000000000000000000001c4fe43adb0a5e900000",
        "contractAddress": "",
        "cumulativeGasUsed": "788651",
        "gasUsed": "320440",
        "confirmations": "2838453",
        "methodId": "0xd6febde8",
        "functionName": "buy(uint256 id, uint256 amount)",
        "decodedInput": {
          "name": "buy",
          "params": [
            {
              "name": "_d",
              "value": "20",
              "type": "uint256"
            },
            {
              "name": "_amount",
              "value": "133700000000000000000000",
              "type": "uint256"
            }
          ]
        }
      },
      {
        "blockNumber": "41111866",
        "timeStamp": "1655939409",
        "hash": "0x4d8d4178e20c685c2707b30c05c8f53cd99fd06d439c2381a258b654ad4b060e",
        "nonce": "509",
        "blockHash": "0x0001ec77000002f66102b1d1f6928c598aa781c28a464bd52c313695f6e02a56",
        "transactionIndex": "5",
        "from": "0x5c146cd18fa53914580573c9b9604588529406ca",
        "to": "0xad337077480134028b7c68af290e891ce28076eb",
        "value": "136551724137931020800",
        "gas": "347908",
        "gasPrice": "2929463457",
        "isError": "0",
        "txreceipt_status": "1",
        "input": "0xd6febde80000000000000000000000000000000000000000000000000000000000000014000000000000000000000000000000000000000000001c4fe43adb0a5e900000",
        "contractAddress": "",
        "cumulativeGasUsed": "1804938",
        "gasUsed": "320440",
        "confirmations": "2838450",
        "methodId": "0xd6febde8",
        "functionName": "buy(uint256 id, uint256 amount)",
        "decodedInput": {
          "name": "buy",
          "params": [
            {
              "name": "_d",
              "value": "20",
              "type": "uint256"
            },
            {
              "name": "_amount",
              "value": "133700000000000000000000",
              "type": "uint256"
            }
          ]
        }
      },
      {
        "blockNumber": "41112039",
        "timeStamp": "1655939592",
        "hash": "0x69bc77b5f125cd8b801e9b985ec5aa448ff7103a96a1c342926beae9f9734746",
        "nonce": "510",
        "blockHash": "0x0001ec7700000cc5e663795bc065dafa3530a428577f58a3fc67f35b1ad21e7c",
        "transactionIndex": "1",
        "from": "0x5c146cd18fa53914580573c9b9604588529406ca",
        "to": "0xad337077480134028b7c68af290e891ce28076eb",
        "value": "136551724137931020800",
        "gas": "347908",
        "gasPrice": "15588917087",
        "isError": "0",
        "txreceipt_status": "1",
        "input": "0xd6febde80000000000000000000000000000000000000000000000000000000000000014000000000000000000000000000000000000000000001c4fe43adb0a5e900000",
        "contractAddress": "",
        "cumulativeGasUsed": "439507",
        "gasUsed": "320440",
        "confirmations": "2838277",
        "methodId": "0xd6febde8",
        "functionName": "buy(uint256 id, uint256 amount)",
        "decodedInput": {
          "name": "buy",
          "params": [
            {
              "name": "_d",
              "value": "20",
              "type": "uint256"
            },
            {
              "name": "_amount",
              "value": "133700000000000000000000",
              "type": "uint256"
            }
          ]
        }
      },
      {
        "blockNumber": "41112041",
        "timeStamp": "1755939595",
        "hash": "0xbc5f89a365464c26666cc27ad2dd68523d54d43cba78188e3b59d5ec2a653ecb",
        "nonce": "511",
        "blockHash": "0x0001ec7700000ce2d965b4f844f3f3966bacdd8b6aa880cb9b3ad6ecb36ef055",
        "transactionIndex": "6",
        "from": "0x5c146cd18fa53914580573c9b9604588529406ca",
        "to": "0xad337077480134028b7c68af290e891ce28076eb",
        "value": "136551724137931020800",
        "gas": "347908",
        "gasPrice": "15588917087",
        "isError": "0",
        "txreceipt_status": "1",
        "input": "0xd6febde80000000000000000000000000000000000000000000000000000000000000014000000000000000000000000000000000000000000001c4fe43adb0a5e900000",
        "contractAddress": "",
        "cumulativeGasUsed": "1423717",
        "gasUsed": "320440",
        "confirmations": "2838275",
        "methodId": "0xd6febde8",
        "functionName": "buy(uint256 id, uint256 amount)",
        "decodedInput": {
          "name": "buy",
          "params": [
            {
              "name": "_d",
              "value": "20",
              "type": "uint256"
            },
            {
              "name": "_amount",
              "value": "133700000000000000000000",
              "type": "uint256"
            }
          ]
        }
      },
      {
        "blockNumber": "41112044",
        "timeStamp": "1855939598",
        "hash": "0x914c2e6cbcbac40e2a03fbcdcd20df6636f3b1b021d5ed6637fdb01333f9a82b",
        "nonce": "512",
        "blockHash": "0x0001ec7700000d0a37aba8ba9502c2f0475782825bc287669ead981e9185b206",
        "transactionIndex": "28",
        "from": "0x5c146cd18fa53914580573c9b9604588529406ca",
        "to": "0xad337077480134028b7c68af290e891ce28076eb",
        "value": "136551724137931020800",
        "gas": "347908",
        "gasPrice": "15588917087",
        "isError": "0",
        "txreceipt_status": "1",
        "input": "0xd6febde80000000000000000000000000000000000000000000000000000000000000014000000000000000000000000000000000000000000001c4fe43adb0a5e900000",
        "contractAddress": "",
        "cumulativeGasUsed": "7258623",
        "gasUsed": "320440",
        "confirmations": "2838272",
        "methodId": "0xd6febde8",
        "functionName": "buy(uint256 id, uint256 amount)",
        "decodedInput": {
          "name": "buy",
          "params": [
            {
              "name": "_d",
              "value": "20",
              "type": "uint256"
            },
            {
              "name": "_amount",
              "value": "133700000000000000000000",
              "type": "uint256"
            }
          ]
        }
      },
      {
        "blockNumber": "41112047",
        "timeStamp": "1955939602",
        "hash": "0xd4d2cbef015dee84b49e5b07be140d48bbfdd17780da88a6af0680053c61ea96",
        "nonce": "513",
        "blockHash": "0x0001ec7700000d2e9f065c6a6315ff807039cd87d9fad38d01e16face5434fc4",
        "transactionIndex": "20",
        "from": "0x5c146cd18fa53914580573c9b9604588529406ca",
        "to": "0xad337077480134028b7c68af290e891ce28076eb",
        "value": "136551724137931020800",
        "gas": "347908",
        "gasPrice": "15588917087",
        "isError": "0",
        "txreceipt_status": "1",
        "input": "0xd6febde80000000000000000000000000000000000000000000000000000000000000014000000000000000000000000000000000000000000001c4fe43adb0a5e900000",
        "contractAddress": "",
        "cumulativeGasUsed": "5499592",
        "gasUsed": "320440",
        "confirmations": "2838269",
        "methodId": "0xd6febde8",
        "functionName": "buy(uint256 id, uint256 amount)",
        "decodedInput": {
          "name": "buy",
          "params": [
            {
              "name": "_d",
              "value": "20",
              "type": "uint256"
            },
            {
              "name": "_amount",
              "value": "133700000000000000000000",
              "type": "uint256"
            }
          ]
        }
      },
      {
        "blockNumber": "41112049",
        "timeStamp": "1995939604",
        "hash": "0x9f3930f669964edd29bb0826f5bec1077d46f904bd8ead42f0c5dbda08db4096",
        "nonce": "514",
        "blockHash": "0x0001ec7700000d45bb1cbbbf606472ad75c73fea92ebe8f77b547dd02049b123",
        "transactionIndex": "4",
        "from": "0x5c146cd18fa53914580573c9b9604588529406ca",
        "to": "0xad337077480134028b7c68af290e891ce28076eb",
        "value": "136551724137931020800",
        "gas": "347908",
        "gasPrice": "17598703028",
        "isError": "0",
        "txreceipt_status": "1",
        "input": "0xd6febde80000000000000000000000000000000000000000000000000000000000000014000000000000000000000000000000000000000000001c4fe43adb0a5e900000",
        "contractAddress": "",
        "cumulativeGasUsed": "2155642",
        "gasUsed": "320440",
        "confirmations": "2838267",
        "methodId": "0xd6febde8",
        "functionName": "buy(uint256 id, uint256 amount)",
        "decodedInput": {
          "name": "buy",
          "params": [
            {
              "name": "_d",
              "value": "20",
              "type": "uint256"
            },
            {
              "name": "_amount",
              "value": "133700000000000000000000",
              "type": "uint256"
            }
          ]
        }
      },
      {
        "blockNumber": "42261038",
        "timeStamp": "1657237078",
        "hash": "0x9413a7a6bb8c6b58bb84802d35649334cc3bec156a8e6bc7e3db1f69f73210f3",
        "nonce": "556",
        "blockHash": "0x000200340000173a73e9f3f2a49fb25cb937802c92c7d26a4519184fa3203a87",
        "transactionIndex": "0",
        "from": "0x5c146cd18fa53914580573c9b9604588529406ca",
        "to": "0xad337077480134028b7c68af290e891ce28076eb",
        "value": "136551724137931020800",
        "gas": "347908",
        "gasPrice": "13646382987",
        "isError": "0",
        "txreceipt_status": "1",
        "input": "0xd6febde80000000000000000000000000000000000000000000000000000000000000014000000000000000000000000000000000000000000001c4fe43adb0a5e900000",
        "contractAddress": "",
        "cumulativeGasUsed": "320440",
        "gasUsed": "320440",
        "confirmations": "1689278",
        "methodId": "0xd6febde8",
        "functionName": "buy(uint256 id, uint256 amount)",
        "decodedInput": {
          "name": "buy",
          "params": [
            {
              "name": "_d",
              "value": "20",
              "type": "uint256"
            },
            {
              "name": "_amount",
              "value": "133700000000000000000000",
              "type": "uint256"
            }
          ]
        }
      },
      {
        "blockNumber": "42261101",
        "timeStamp": "1657237145",
        "hash": "0x07e7a930833755e35b818e12d1ad2c12ac2c4b77b9a4691479015993295dbdd6",
        "nonce": "557",
        "blockHash": "0x0002003400001b3536875dffeee0c06f601973fe0b8099c1b606db9e95144a48",
        "transactionIndex": "1",
        "from": "0x5c146cd18fa53914580573c9b9604588529406ca",
        "to": "0xad337077480134028b7c68af290e891ce28076eb",
        "value": "136551724137931020800",
        "gas": "347908",
        "gasPrice": "13330959936",
        "isError": "0",
        "txreceipt_status": "1",
        "input": "0xd6febde80000000000000000000000000000000000000000000000000000000000000014000000000000000000000000000000000000000000001c4fe43adb0a5e900000",
        "contractAddress": "",
        "cumulativeGasUsed": "703111",
        "gasUsed": "320440",
        "confirmations": "1689215",
        "methodId": "0xd6febde8",
        "functionName": "buy(uint256 id, uint256 amount)",
        "decodedInput": {
          "name": "buy",
          "params": [
            {
              "name": "_d",
              "value": "20",
              "type": "uint256"
            },
            {
              "name": "_amount",
              "value": "133700000000000000000000",
              "type": "uint256"
            }
          ]
        }
      },
      {
        "blockNumber": "42261123",
        "timeStamp": "1657237168",
        "hash": "0xd1b2ee2fe14cecc720367dc40305c3fbe503a9f1a5c8658e4119702eecc371f6",
        "nonce": "558",
        "blockHash": "0x0002003400001c8645f5dd1b8f8d281324e4c3f45aed0834bd4b92afc6af4d91",
        "transactionIndex": "1",
        "from": "0x5c146cd18fa53914580573c9b9604588529406ca",
        "to": "0xad337077480134028b7c68af290e891ce28076eb",
        "value": "136551724137931020800",
        "gas": "347908",
        "gasPrice": "13330959936",
        "isError": "0",
        "txreceipt_status": "1",
        "input": "0xd6febde80000000000000000000000000000000000000000000000000000000000000014000000000000000000000000000000000000000000001c4fe43adb0a5e900000",
        "contractAddress": "",
        "cumulativeGasUsed": "999894",
        "gasUsed": "320440",
        "confirmations": "1689193",
        "methodId": "0xd6febde8",
        "functionName": "buy(uint256 id, uint256 amount)",
        "decodedInput": {
          "name": "buy",
          "params": [
            {
              "name": "_d",
              "value": "20",
              "type": "uint256"
            },
            {
              "name": "_amount",
              "value": "133700000000000000000000",
              "type": "uint256"
            }
          ]
        }
      },
      {
        "blockNumber": "42261126",
        "timeStamp": "1657237171",
        "hash": "0x3c7b7038315e4ad2d11710057294fa6f0ac69d263e9f9c7d8be3a3a325d7ada4",
        "nonce": "559",
        "blockHash": "0x0002003400001cb1d4eb7186007c36a3066fc35ed20faf1d31f8742b34860765",
        "transactionIndex": "2",
        "from": "0x5c146cd18fa53914580573c9b9604588529406ca",
        "to": "0xad337077480134028b7c68af290e891ce28076eb",
        "value": "136551724137931020800",
        "gas": "347908",
        "gasPrice": "13330959936",
        "isError": "0",
        "txreceipt_status": "1",
        "input": "0xd6febde80000000000000000000000000000000000000000000000000000000000000014000000000000000000000000000000000000000000001c4fe43adb0a5e900000",
        "contractAddress": "",
        "cumulativeGasUsed": "574655",
        "gasUsed": "320440",
        "confirmations": "1689190",
        "methodId": "0xd6febde8",
        "functionName": "buy(uint256 id, uint256 amount)",
        "decodedInput": {
          "name": "buy",
          "params": [
            {
              "name": "_d",
              "value": "20",
              "type": "uint256"
            },
            {
              "name": "_amount",
              "value": "133700000000000000000000",
              "type": "uint256"
            }
          ]
        }
      },
      {
        "blockNumber": "42261188",
        "timeStamp": "1657237238",
        "hash": "0xaed526c4f49c94b41598c5d5454bf31f7ed7f566863ff129c47d4644e666a4c8",
        "nonce": "560",
        "blockHash": "0x000200340000204f5c45520b84a4c634242d10feaded46d8e9e8ca4207d4973a",
        "transactionIndex": "2",
        "from": "0x5c146cd18fa53914580573c9b9604588529406ca",
        "to": "0xad337077480134028b7c68af290e891ce28076eb",
        "value": "136551724137931020800",
        "gas": "347908",
        "gasPrice": "13041389598",
        "isError": "0",
        "txreceipt_status": "1",
        "input": "0xd6febde80000000000000000000000000000000000000000000000000000000000000014000000000000000000000000000000000000000000001c4fe43adb0a5e900000",
        "contractAddress": "",
        "cumulativeGasUsed": "749952",
        "gasUsed": "320440",
        "confirmations": "1689128",
        "methodId": "0xd6febde8",
        "functionName": "buy(uint256 id, uint256 amount)",
        "decodedInput": {
          "name": "buy",
          "params": [
            {
              "name": "_d",
              "value": "20",
              "type": "uint256"
            },
            {
              "name": "_amount",
              "value": "133700000000000000000000",
              "type": "uint256"
            }
          ]
        }
      },
      {
        "blockNumber": "42261191",
        "timeStamp": "1657237242",
        "hash": "0xcbd93fca5174815315efa56e3ef145949558b8609eb5392523643bf1156f59c4",
        "nonce": "561",
        "blockHash": "0x0002003400002073da6fac4377b4afa56d96e931dcfb586d4ce86a604f2d1ee9",
        "transactionIndex": "2",
        "from": "0x5c146cd18fa53914580573c9b9604588529406ca",
        "to": "0xad337077480134028b7c68af290e891ce28076eb",
        "value": "136551724137931020800",
        "gas": "347908",
        "gasPrice": "13041389598",
        "isError": "0",
        "txreceipt_status": "1",
        "input": "0xd6febde80000000000000000000000000000000000000000000000000000000000000014000000000000000000000000000000000000000000001c4fe43adb0a5e900000",
        "contractAddress": "",
        "cumulativeGasUsed": "868362",
        "gasUsed": "320440",
        "confirmations": "1689125",
        "methodId": "0xd6febde8",
        "functionName": "buy(uint256 id, uint256 amount)",
        "decodedInput": {
          "name": "buy",
          "params": [
            {
              "name": "_d",
              "value": "20",
              "type": "uint256"
            },
            {
              "name": "_amount",
              "value": "133700000000000000000000",
              "type": "uint256"
            }
          ]
        }
      },
      {
        "blockNumber": "42261195",
        "timeStamp": "1657237255",
        "hash": "0x889719245d9cfe59646954c7829b24ed3881bfe32d85eba91b686a1547caf1da",
        "nonce": "562",
        "blockHash": "0x000200350000003d34c701cde78ad1612eb68308848db3876e5f3aaa4616675d",
        "transactionIndex": "18",
        "from": "0x5c146cd18fa53914580573c9b9604588529406ca",
        "to": "0xad337077480134028b7c68af290e891ce28076eb",
        "value": "136551724137931020800",
        "gas": "347908",
        "gasPrice": "13041389598",
        "isError": "0",
        "txreceipt_status": "1",
        "input": "0xd6febde80000000000000000000000000000000000000000000000000000000000000014000000000000000000000000000000000000000000001c4fe43adb0a5e900000",
        "contractAddress": "",
        "cumulativeGasUsed": "2377968",
        "gasUsed": "320440",
        "confirmations": "1689121",
        "methodId": "0xd6febde8",
        "functionName": "buy(uint256 id, uint256 amount)",
        "decodedInput": {
          "name": "buy",
          "params": [
            {
              "name": "_d",
              "value": "20",
              "type": "uint256"
            },
            {
              "name": "_amount",
              "value": "133700000000000000000000",
              "type": "uint256"
            }
          ]
        }
      },
      {
        "blockNumber": "42261199",
        "timeStamp": "1657237261",
        "hash": "0x56c3f40cabc60ccd479e20b676bd1229ed920962cebbb32eb14762afce4a284a",
        "nonce": "563",
        "blockHash": "0x0002003500000081d96bc723d4ade3afcaf2e825a3e10db1f40557a2dda43941",
        "transactionIndex": "0",
        "from": "0x5c146cd18fa53914580573c9b9604588529406ca",
        "to": "0xad337077480134028b7c68af290e891ce28076eb",
        "value": "136551724137931020800",
        "gas": "347908",
        "gasPrice": "13041389598",
        "isError": "0",
        "txreceipt_status": "1",
        "input": "0xd6febde80000000000000000000000000000000000000000000000000000000000000014000000000000000000000000000000000000000000001c4fe43adb0a5e900000",
        "contractAddress": "",
        "cumulativeGasUsed": "320440",
        "gasUsed": "320440",
        "confirmations": "1689117",
        "methodId": "0xd6febde8",
        "functionName": "buy(uint256 id, uint256 amount)",
        "decodedInput": {
          "name": "buy",
          "params": [
            {
              "name": "_d",
              "value": "20",
              "type": "uint256"
            },
            {
              "name": "_amount",
              "value": "133700000000000000000000",
              "type": "uint256"
            }
          ]
        }
      },
      {
        "blockNumber": "43543698",
        "timeStamp": "1658785204",
        "hash": "0x0fd3b2fb32aeb1daf2564186d27015f761bd16598283497ab11814f2b28db9b4",
        "nonce": "581",
        "blockHash": "0x000217d2000001f5ea938039c0ae0ea184deeb999824303b894f775d2933768c",
        "transactionIndex": "3",
        "from": "0x5c146cd18fa53914580573c9b9604588529406ca",
        "to": "0xad337077480134028b7c68af290e891ce28076eb",
        "value": "136551724137931020800",
        "gas": "347908",
        "gasPrice": "1655194141",
        "isError": "0",
        "txreceipt_status": "1",
        "input": "0xd6febde80000000000000000000000000000000000000000000000000000000000000014000000000000000000000000000000000000000000001c4fe43adb0a5e900000",
        "contractAddress": "",
        "cumulativeGasUsed": "660053",
        "gasUsed": "320440",
        "confirmations": "406618",
        "methodId": "0xd6febde8",
        "functionName": "buy(uint256 id, uint256 amount)",
        "decodedInput": {
          "name": "buy",
          "params": [
            {
              "name": "_d",
              "value": "20",
              "type": "uint256"
            },
            {
              "name": "_amount",
              "value": "133700000000000000000000",
              "type": "uint256"
            }
          ]
        }
      },
      {
        "blockNumber": "43544074",
        "timeStamp": "1658785607",
        "hash": "0x09c062bb202e2a5fc5e39485960f5dacbdcbe2f98c7fa63ebe12b204d5427913",
        "nonce": "582",
        "blockHash": "0x000217d3000001b69daf57c31e5e2f14e8b4cd95800e821c6a52aa5c22911f67",
        "transactionIndex": "12",
        "from": "0x5c146cd18fa53914580573c9b9604588529406ca",
        "to": "0xad337077480134028b7c68af290e891ce28076eb",
        "value": "273103448275862041600",
        "gas": "347908",
        "gasPrice": "1554526985",
        "isError": "0",
        "txreceipt_status": "1",
        "input": "0xd6febde8000000000000000000000000000000000000000000000000000000000000001400000000000000000000000000000000000000000000389fc875b614bd200000",
        "contractAddress": "",
        "cumulativeGasUsed": "4816541",
        "gasUsed": "320440",
        "confirmations": "406242",
        "methodId": "0xd6febde8",
        "functionName": "buy(uint256 id, uint256 amount)",
        "decodedInput": {
          "name": "buy",
          "params": [
            {
              "name": "_d",
              "value": "20",
              "type": "uint256"
            },
            {
              "name": "_amount",
              "value": "267400000000000000000000",
              "type": "uint256"
            }
          ]
        }
      },
      {
        "blockNumber": "43544158",
        "timeStamp": "1658785713",
        "hash": "0x3d299bb07c85d55295ce63bdcf1bfa9a09011edb9479cee4409a2ea850e2f51c",
        "nonce": "583",
        "blockHash": "0x000217d30000069faf600a349ff3478e97581e3f95ad5cc34358b73de3bd3145",
        "transactionIndex": "26",
        "from": "0x5c146cd18fa53914580573c9b9604588529406ca",
        "to": "0xad337077480134028b7c68af290e891ce28076eb",
        "value": "409655172413793062400",
        "gas": "347908",
        "gasPrice": "2000000000",
        "isError": "0",
        "txreceipt_status": "1",
        "input": "0xd6febde800000000000000000000000000000000000000000000000000000000000000140000000000000000000000000000000000000000000054efacb0911f1bb00000",
        "contractAddress": "",
        "cumulativeGasUsed": "4973387",
        "gasUsed": "320440",
        "confirmations": "406158",
        "methodId": "0xd6febde8",
        "functionName": "buy(uint256 id, uint256 amount)",
        "decodedInput": {
          "name": "buy",
          "params": [
            {
              "name": "_d",
              "value": "20",
              "type": "uint256"
            },
            {
              "name": "_amount",
              "value": "401100000000000000000000",
              "type": "uint256"
            }
          ]
        }
      },
      {
        "blockNumber": "43544173",
        "timeStamp": "1658785729",
        "hash": "0x96d3d19c317790134cf691463d987aef0bd5dfd3ad15fffa5f83d2b005b0aac3",
        "nonce": "584",
        "blockHash": "0x000217d300000758a9c2d3f6f498f2b98819c2f1561bb8e4e2e1752d7028559f",
        "transactionIndex": "4",
        "from": "0x5c146cd18fa53914580573c9b9604588529406ca",
        "to": "0xad337077480134028b7c68af290e891ce28076eb",
        "value": "409655172413793062400",
        "gas": "347908",
        "gasPrice": "2000000000",
        "isError": "0",
        "txreceipt_status": "1",
        "input": "0xd6febde800000000000000000000000000000000000000000000000000000000000000140000000000000000000000000000000000000000000054efacb0911f1bb00000",
        "contractAddress": "",
        "cumulativeGasUsed": "3883669",
        "gasUsed": "320440",
        "confirmations": "406143",
        "methodId": "0xd6febde8",
        "functionName": "buy(uint256 id, uint256 amount)",
        "decodedInput": {
          "name": "buy",
          "params": [
            {
              "name": "_d",
              "value": "20",
              "type": "uint256"
            },
            {
              "name": "_amount",
              "value": "401100000000000000000000",
              "type": "uint256"
            }
          ]
        }
      },
      {
        "blockNumber": "43544363",
        "timeStamp": "1658786005",
        "hash": "0xd05f23d653b99c30555227b21d2c3df497d6c7d0373c18ee5ca2e20834d3cb05",
        "nonce": "585",
        "blockHash": "0x000217d50000003f7e3e93a7f4192db63081213524f38611bd58b0cdd071952b",
        "transactionIndex": "1",
        "from": "0x5c146cd18fa53914580573c9b9604588529406ca",
        "to": "0xad337077480134028b7c68af290e891ce28076eb",
        "value": "409655172413793062400",
        "gas": "368966",
        "gasPrice": "1819541667",
        "isError": "0",
        "txreceipt_status": "1",
        "input": "0xd6febde800000000000000000000000000000000000000000000000000000000000000140000000000000000000000000000000000000000000054efacb0911f1bb00000",
        "contractAddress": "",
        "cumulativeGasUsed": "868100",
        "gasUsed": "298298",
        "confirmations": "405953",
        "methodId": "0xd6febde8",
        "functionName": "buy(uint256 id, uint256 amount)",
        "decodedInput": {
          "name": "buy",
          "params": [
            {
              "name": "_d",
              "value": "20",
              "type": "uint256"
            },
            {
              "name": "_amount",
              "value": "401100000000000000000000",
              "type": "uint256"
            }
          ]
        }
      },
      {
        "blockNumber": "43545470",
        "timeStamp": "1658787368",
        "hash": "0xffcefafbd5748c36624202b4b473bd7e7077df462f36bd13faa9651b3a55343e",
        "nonce": "586",
        "blockHash": "0x000217d900000311c81c406fb7adc3432fb6ef57a2d7a697baf1e66121d04d74",
        "transactionIndex": "44",
        "from": "0x5c146cd18fa53914580573c9b9604588529406ca",
        "to": "0xad337077480134028b7c68af290e891ce28076eb",
        "value": "120000000000000000000",
        "gas": "347896",
        "gasPrice": "2000000000",
        "isError": "0",
        "txreceipt_status": "1",
        "input": "0xd6febde80000000000000000000000000000000000000000000000000000000000000018000000000000000000000000000000000000000000007f0e10af47c1c7000000",
        "contractAddress": "",
        "cumulativeGasUsed": "7842308",
        "gasUsed": "320428",
        "confirmations": "404846",
        "methodId": "0xd6febde8",
        "functionName": "buy(uint256 id, uint256 amount)",
        "decodedInput": {
          "name": "buy",
          "params": [
            {
              "name": "_d",
              "value": "24",
              "type": "uint256"
            },
            {
              "name": "_amount",
              "value": "600000000000000000000000",
              "type": "uint256"
            }
          ]
        }
      },
      {
        "blockNumber": "43545491",
        "timeStamp": "1658787400",
        "hash": "0x3b500859bece7e87c0fc5bd55259d92728194119f42b8f7d50d9acdfa622c57e",
        "nonce": "587",
        "blockHash": "0x000217d9000004599427a317c3cded5ab6249c5131a556494eedb15d5b8568aa",
        "transactionIndex": "18",
        "from": "0x5c146cd18fa53914580573c9b9604588529406ca",
        "to": "0xad337077480134028b7c68af290e891ce28076eb",
        "value": "200000000000000000000",
        "gas": "347896",
        "gasPrice": "2000000000",
        "isError": "0",
        "txreceipt_status": "1",
        "input": "0xd6febde8000000000000000000000000000000000000000000000000000000000000001800000000000000000000000000000000000000000000d3c21bcecceda1000000",
        "contractAddress": "",
        "cumulativeGasUsed": "3978894",
        "gasUsed": "320428",
        "confirmations": "404825",
        "methodId": "0xd6febde8",
        "functionName": "buy(uint256 id, uint256 amount)",
        "decodedInput": {
          "name": "buy",
          "params": [
            {
              "name": "_d",
              "value": "24",
              "type": "uint256"
            },
            {
              "name": "_amount",
              "value": "1000000000000000000000000",
              "type": "uint256"
            }
          ]
        }
      },
      {
        "blockNumber": "43545503",
        "timeStamp": "1658787414",
        "hash": "0xf5861e8f4a9a9d5d90a39f8b4643aa942286b9a7534ad00b1c3e843f67767548",
        "nonce": "588",
        "blockHash": "0x000217d9000004f272b5123d436bcb6abd197817bd048472eded4adcd4874f61",
        "transactionIndex": "0",
        "from": "0x5c146cd18fa53914580573c9b9604588529406ca",
        "to": "0xad337077480134028b7c68af290e891ce28076eb",
        "value": "220000000000000000000",
        "gas": "347908",
        "gasPrice": "2000000000",
        "isError": "0",
        "txreceipt_status": "1",
        "input": "0xd6febde8000000000000000000000000000000000000000000000000000000000000001800000000000000000000000000000000000000000000e8ef1e96ae3897800000",
        "contractAddress": "",
        "cumulativeGasUsed": "320440",
        "gasUsed": "320440",
        "confirmations": "404813",
        "methodId": "0xd6febde8",
        "functionName": "buy(uint256 id, uint256 amount)",
        "decodedInput": {
          "name": "buy",
          "params": [
            {
              "name": "_d",
              "value": "24",
              "type": "uint256"
            },
            {
              "name": "_amount",
              "value": "1100000000000000000000000",
              "type": "uint256"
            }
          ]
        }
      },
      {
        "blockNumber": "43545540",
        "timeStamp": "1658787471",
        "hash": "0x53d21c7d2f6f66dd4df4fcfed03a93a6a7fcccb87bd58753129dd57e0e1ea037",
        "nonce": "589",
        "blockHash": "0x000217da00000230a8c1110a03f97cc8a4e06ee784a97a44b248a1d102f888c3",
        "transactionIndex": "0",
        "from": "0x5c146cd18fa53914580573c9b9604588529406ca",
        "to": "0xad337077480134028b7c68af290e891ce28076eb",
        "value": "220000000000000000000",
        "gas": "347908",
        "gasPrice": "2000000000",
        "isError": "0",
        "txreceipt_status": "1",
        "input": "0xd6febde8000000000000000000000000000000000000000000000000000000000000001800000000000000000000000000000000000000000000e8ef1e96ae3897800000",
        "contractAddress": "",
        "cumulativeGasUsed": "320440",
        "gasUsed": "320440",
        "confirmations": "404776",
        "methodId": "0xd6febde8",
        "functionName": "buy(uint256 id, uint256 amount)",
        "decodedInput": {
          "name": "buy",
          "params": [
            {
              "name": "_d",
              "value": "24",
              "type": "uint256"
            },
            {
              "name": "_amount",
              "value": "1100000000000000000000000",
              "type": "uint256"
            }
          ]
        }
      },
      {
        "blockNumber": "43545540",
        "timeStamp": "1658787471",
        "hash": "0xc7092a131d75ec54c2200f6da3ae43b067c8f4c26f1cfd66692ffe30f72d437b",
        "nonce": "590",
        "blockHash": "0x000217da00000230a8c1110a03f97cc8a4e06ee784a97a44b248a1d102f888c3",
        "transactionIndex": "1",
        "from": "0x5c146cd18fa53914580573c9b9604588529406ca",
        "to": "0xad337077480134028b7c68af290e891ce28076eb",
        "value": "240000000000000000000",
        "gas": "347896",
        "gasPrice": "2000000000",
        "isError": "0",
        "txreceipt_status": "1",
        "input": "0xd6febde8000000000000000000000000000000000000000000000000000000000000001800000000000000000000000000000000000000000000fe1c215e8f838e000000",
        "contractAddress": "",
        "cumulativeGasUsed": "640868",
        "gasUsed": "320428",
        "confirmations": "404776",
        "methodId": "0xd6febde8",
        "functionName": "buy(uint256 id, uint256 amount)",
        "decodedInput": {
          "name": "buy",
          "params": [
            {
              "name": "_d",
              "value": "24",
              "type": "uint256"
            },
            {
              "name": "_amount",
              "value": "1200000000000000000000000",
              "type": "uint256"
            }
          ]
        }
      },
      {
        "blockNumber": "43545781",
        "timeStamp": "1658787741",
        "hash": "0x8032c177cd144e9cc94dd17462d846e081868079df8ace9b65614f81bd2f4672",
        "nonce": "591",
        "blockHash": "0x000217db0000009166e195c050206bcc5e8adeb10e4b79d5671636eed8d5b5ea",
        "transactionIndex": "4",
        "from": "0x5c146cd18fa53914580573c9b9604588529406ca",
        "to": "0xad337077480134028b7c68af290e891ce28076eb",
        "value": "300000000000000000000",
        "gas": "347920",
        "gasPrice": "2000000000",
        "isError": "0",
        "txreceipt_status": "1",
        "input": "0xd6febde80000000000000000000000000000000000000000000000000000000000000018000000000000000000000000000000000000000000013da329b6336471800000",
        "contractAddress": "",
        "cumulativeGasUsed": "706985",
        "gasUsed": "320452",
        "confirmations": "404535",
        "methodId": "0xd6febde8",
        "functionName": "buy(uint256 id, uint256 amount)",
        "decodedInput": {
          "name": "buy",
          "params": [
            {
              "name": "_d",
              "value": "24",
              "type": "uint256"
            },
            {
              "name": "_amount",
              "value": "1500000000000000000000000",
              "type": "uint256"
            }
          ]
        }
      },
      {
        "blockNumber": "43545796",
        "timeStamp": "1658787756",
        "hash": "0xd9e08bc93ed6969ce0011c3c77d0203f1715f38756e01a60c4ef9f7ed27e6195",
        "nonce": "592",
        "blockHash": "0x000217db0000014d26ec5aad36293325d585f45325ef605efdf5f46c6c436050",
        "transactionIndex": "2",
        "from": "0x5c146cd18fa53914580573c9b9604588529406ca",
        "to": "0xad337077480134028b7c68af290e891ce28076eb",
        "value": "320000000000000000000",
        "gas": "347908",
        "gasPrice": "2000000000",
        "isError": "0",
        "txreceipt_status": "1",
        "input": "0xd6febde800000000000000000000000000000000000000000000000000000000000000180000000000000000000000000000000000000000000152d02c7e14af68000000",
        "contractAddress": "",
        "cumulativeGasUsed": "905460",
        "gasUsed": "320440",
        "confirmations": "404520",
        "methodId": "0xd6febde8",
        "functionName": "buy(uint256 id, uint256 amount)",
        "decodedInput": {
          "name": "buy",
          "params": [
            {
              "name": "_d",
              "value": "24",
              "type": "uint256"
            },
            {
              "name": "_amount",
              "value": "1600000000000000000000000",
              "type": "uint256"
            }
          ]
        }
      },
      {
        "blockNumber": "43546205",
        "timeStamp": "1658788401",
        "hash": "0x2f5b5bf7a71c1284816717abc10ae2c4ab3d0e6cc956b6bd6a3a73c0c85e77bc",
        "nonce": "593",
        "blockHash": "0x000217df00000722bd3cae8e815ec799a629e60a80bfffa9fb6e61023e855871",
        "transactionIndex": "1",
        "from": "0x5c146cd18fa53914580573c9b9604588529406ca",
        "to": "0xad337077480134028b7c68af290e891ce28076eb",
        "value": "640000000000000000000",
        "gas": "347908",
        "gasPrice": "3000000000",
        "isError": "0",
        "txreceipt_status": "1",
        "input": "0xd6febde8000000000000000000000000000000000000000000000000000000000000001800000000000000000000000000000000000000000002a5a058fc295ed0000000",
        "contractAddress": "",
        "cumulativeGasUsed": "1054331",
        "gasUsed": "320440",
        "confirmations": "404111",
        "methodId": "0xd6febde8",
        "functionName": "buy(uint256 id, uint256 amount)",
        "decodedInput": {
          "name": "buy",
          "params": [
            {
              "name": "_d",
              "value": "24",
              "type": "uint256"
            },
            {
              "name": "_amount",
              "value": "3200000000000000000000000",
              "type": "uint256"
            }
          ]
        }
      },
      {
        "blockNumber": "43546334",
        "timeStamp": "1658788568",
        "hash": "0x946384202916de44819efa0c49338f31c0fc36e45c8b8ac29b0e7138ed1243fa",
        "nonce": "594",
        "blockHash": "0x000217e00000016f7508c823092cd17e3abc2113ba34b643812f3255ae3b3228",
        "transactionIndex": "3",
        "from": "0x5c146cd18fa53914580573c9b9604588529406ca",
        "to": "0xad337077480134028b7c68af290e891ce28076eb",
        "value": "660000000000000000000",
        "gas": "347920",
        "gasPrice": "2692863723",
        "isError": "0",
        "txreceipt_status": "1",
        "input": "0xd6febde8000000000000000000000000000000000000000000000000000000000000001800000000000000000000000000000000000000000002bacd5bc40aa9c6800000",
        "contractAddress": "",
        "cumulativeGasUsed": "2280945",
        "gasUsed": "320452",
        "confirmations": "403982",
        "methodId": "0xd6febde8",
        "functionName": "buy(uint256 id, uint256 amount)",
        "decodedInput": {
          "name": "buy",
          "params": [
            {
              "name": "_d",
              "value": "24",
              "type": "uint256"
            },
            {
              "name": "_amount",
              "value": "3300000000000000000000000",
              "type": "uint256"
            }
          ]
        }
      },
      {
        "blockNumber": "43546452",
        "timeStamp": "1658788699",
        "hash": "0x202e1a218374a60fdc77107e43ece53cecfed1c174266aa41ac5fb86416f7a74",
        "nonce": "595",
        "blockHash": "0x000217e0000007ed55f1c03e2150c03421e1340f9c10be98354e46094b6fa7da",
        "transactionIndex": "2",
        "from": "0x5c146cd18fa53914580573c9b9604588529406ca",
        "to": "0xad337077480134028b7c68af290e891ce28076eb",
        "value": "1080000000000000000000",
        "gas": "347908",
        "gasPrice": "1936795868",
        "isError": "0",
        "txreceipt_status": "1",
        "input": "0xd6febde8000000000000000000000000000000000000000000000000000000000000001800000000000000000000000000000000000000000004777e962985cfff000000",
        "contractAddress": "",
        "cumulativeGasUsed": "904630",
        "gasUsed": "320440",
        "confirmations": "403864",
        "methodId": "0xd6febde8",
        "functionName": "buy(uint256 id, uint256 amount)",
        "decodedInput": {
          "name": "buy",
          "params": [
            {
              "name": "_d",
              "value": "24",
              "type": "uint256"
            },
            {
              "name": "_amount",
              "value": "5400000000000000000000000",
              "type": "uint256"
            }
          ]
        }
      },
      {
        "blockNumber": "43547500",
        "timeStamp": "1658789950",
        "hash": "0x5cb253a2fd119b63cc565c6b2292c76d14bc05c662328f7e280e329e9b197670",
        "nonce": "596",
        "blockHash": "0x000217e4000005363008ab9fc3e2699abdf53a149fe79408a3815d82d30f0b18",
        "transactionIndex": "7",
        "from": "0x5c146cd18fa53914580573c9b9604588529406ca",
        "to": "0xad337077480134028b7c68af290e891ce28076eb",
        "value": "1220000000000000000000",
        "gas": "347920",
        "gasPrice": "1705445595",
        "isError": "0",
        "txreceipt_status": "1",
        "input": "0xd6febde80000000000000000000000000000000000000000000000000000000000000018000000000000000000000000000000000000000000050bb9a9a0aedcbc800000",
        "contractAddress": "",
        "cumulativeGasUsed": "1033532",
        "gasUsed": "320452",
        "confirmations": "402816",
        "methodId": "0xd6febde8",
        "functionName": "buy(uint256 id, uint256 amount)",
        "decodedInput": {
          "name": "buy",
          "params": [
            {
              "name": "_d",
              "value": "24",
              "type": "uint256"
            },
            {
              "name": "_amount",
              "value": "6100000000000000000000000",
              "type": "uint256"
            }
          ]
        }
      },
      {
        "blockNumber": "43548111",
        "timeStamp": "1658790688",
        "hash": "0x8cda47abf664b1c4241c15c089bf59e5a0bd0a14cb302dad1ccba2eb659c7083",
        "nonce": "597",
        "blockHash": "0x000217e70000037fc93c8eda5755df4b28062c4761328ece6a35923582a8f79f",
        "transactionIndex": "11",
        "from": "0x5c146cd18fa53914580573c9b9604588529406ca",
        "to": "0xad337077480134028b7c68af290e891ce28076eb",
        "value": "1500000000000005000000",
        "gas": "368966",
        "gasPrice": "2000000000",
        "isError": "0",
        "txreceipt_status": "1",
        "input": "0xd6febde800000000000000000000000000000000000000000000000000000000000000190000000000000000000000000000000000000000001cf389cd46047d03000000",
        "contractAddress": "",
        "cumulativeGasUsed": "4093532",
        "gasUsed": "303098",
        "confirmations": "402205",
        "methodId": "0xd6febde8",
        "functionName": "buy(uint256 id, uint256 amount)",
        "decodedInput": {
          "name": "buy",
          "params": [
            {
              "name": "_d",
              "value": "25",
              "type": "uint256"
            },
            {
              "name": "_amount",
              "value": "35000000000000000000000000",
              "type": "uint256"
            }
          ]
        }
      },
      {
        "blockNumber": "43549601",
        "timeStamp": "1658792652",
        "hash": "0x14a5c2bc943ad6549721365c17a0e4634176e9dc9c2c11a981231c2c62861678",
        "nonce": "598",
        "blockHash": "0x000217f00000010b83b20483b0fd68cd5a0d30c5e719ec5674578c66f902a4df",
        "transactionIndex": "16",
        "from": "0x5c146cd18fa53914580573c9b9604588529406ca",
        "to": "0xad337077480134028b7c68af290e891ce28076eb",
        "value": "140000000000000000000",
        "gas": "347908",
        "gasPrice": "2000000000",
        "isError": "0",
        "txreceipt_status": "1",
        "input": "0xd6febde8000000000000000000000000000000000000000000000000000000000000001800000000000000000000000000000000000000000000943b1377290cbd800000",
        "contractAddress": "",
        "cumulativeGasUsed": "6472604",
        "gasUsed": "320440",
        "confirmations": "400715",
        "methodId": "0xd6febde8",
        "functionName": "buy(uint256 id, uint256 amount)",
        "decodedInput": {
          "name": "buy",
          "params": [
            {
              "name": "_d",
              "value": "24",
              "type": "uint256"
            },
            {
              "name": "_amount",
              "value": "700000000000000000000000",
              "type": "uint256"
            }
          ]
        }
      },
      {
        "blockNumber": "43550445",
        "timeStamp": "1658793995",
        "hash": "0xcea0f3abeec065d3c5a447220530c4bd78193adb10b08023f2e91e7aeede7007",
        "nonce": "599",
        "blockHash": "0x000217f800000645b5917972b29ce316ccdc455e6fbfff366f89e499ee9f6b74",
        "transactionIndex": "10",
        "from": "0x5c146cd18fa53914580573c9b9604588529406ca",
        "to": "0xad337077480134028b7c68af290e891ce28076eb",
        "value": "500000000000000000000",
        "gas": "368966",
        "gasPrice": "3000000000",
        "isError": "0",
        "txreceipt_status": "1",
        "input": "0xd6febde8000000000000000000000000000000000000000000000000000000000000001a00000000000000000000000000000000000000000001a784379d99db42000000",
        "contractAddress": "",
        "cumulativeGasUsed": "2650009",
        "gasUsed": "303098",
        "confirmations": "399871",
        "methodId": "0xd6febde8",
        "functionName": "buy(uint256 id, uint256 amount)",
        "decodedInput": {
          "name": "buy",
          "params": [
            {
              "name": "_d",
              "value": "26",
              "type": "uint256"
            },
            {
              "name": "_amount",
              "value": "2000000000000000000000000",
              "type": "uint256"
            }
          ]
        }
      }
    ]

module.exports =  data;